:1000000010C034C033C032C031C071C02FC02EC048
:100010002DC02CC02BC02AC029C028C027C09E0CD0
:10002000900C11241FBECFE5D2E0DEBFCDBF10E0A3
:10003000A0E6B0E0E6E9FCE102C005900D92AC3626
:10004000B107D9F720E0ACE6B0E001C01D92AD39B0
:10005000B207E1F710E0C0E1D0E003C02197FE0154
:10006000E0DCCF30D107D1F7DDD109CEC9CF2CEC00
:1000700037E0019720F0F9013197F1F7FACF0895B1
:100080000F931F932FB7F894809181009091820075
:10009000A0918300B0918400409181005091820032
:1000A0006091830070918400809181009091820022
:1000B000A0918300B09184002FBF22E076956795D0
:1000C000579547952A95D1F7892F9A2FAB2FBB27A4
:1000D0008A019B01080F191F2A1F3B1FC901B80184
:1000E0001F910F9108958AB58F738ABD08951F924D
:1000F0000F920FB60F9211248F939F93AF93BF93DC
:100100008091810090918200A0918300B091840041
:100110000196A11DB11D8093810090938200A09350
:100120008300B0938400BF91AF919F918F910F9006
:100130000FBE0F901F901895813080F0833018F01B
:10014000843041F00895813009F4CDCF8AB58F7C99
:100150008ABD08958CB5817880648CBD0895CF9355
:10016000DF93C1DFB09913C0C0E0D0E0BCDFB0992D
:1001700005C082E090E07BDF2196F8CF109264000A
:1001800010926300C53FD14024F082E003C080E0BC
:1001900001C081E080936C00DF91CF910895CF93EF
:1001A000DF93CDB7DEB727970FB6F894DEBF0FBE4B
:1001B000CDBF80918C0090918D00892B09F4A4C053
:1001C0002FB7F8948091810090918200A0918300D4
:1001D000B09184002FBFBA2FA92F982F8827409164
:1001E0009200509193006091940070919500841B4F
:1001F000950BA60BB70B8C329140A105B10500F30E
:10020000F89480918800909189009A838983A091C5
:100210008C00B0918D00FD0131968C918F831B82F3
:1002200098B380919800982B9E8398B380958923EA
:100230008D838D818C838F8187FF02C08E818C831B
:100240005E816D814F813C812B8189819A8158BB70
:10025000262F38BB00C046FD252F68BB00C058BB09
:10026000362F28BB00C045FD352F68BB00C058BBEA
:10027000262F38BB00C044FD252F68BB00C058BBEB
:10028000362F28BB00C043FD352F68BB00C058BBCC
:10029000262F38BB00C042FD252F68BB00C058BBCD
:1002A000362F28BB00C041FD352F68BB00C058BBAE
:1002B000262F38BB00C040FD252F68BB019758BBD7
:1002C000362F28BB419147FD352F68BB01F64F8380
:1002D0003C832B839A83898378942FB7F8948091F9
:1002E000810090918200A0918300B09184002FBF83
:1002F000BA2FA92F982F882780939200909393006C
:10030000A0939400B093950027960FB6F894DEBFA3
:100310000FBECDBFDF91CF910895DC01362F8091C4
:10032000860090918700A817B90708F042C0E091B5
:100330008B00EE2381F0F0E0862F90E0BF0160DBC0
:10034000392F842F90E0BF015BDB492F822F90E093
:10035000BF0156DB292F5091910080918E00E091D2
:100360008C00F0918D00581307C0CD0163E070E060
:1003700047DB8E0F9F1F0BC0CD01880F991F880F81
:10038000991F8E0F9F1FFC01E50FF11D10825091E8
:100390008E00FC01E50FF11D308330918F00FC01D0
:1003A000E30FF11D408330919000FC01E30FF11D3C
:1003B0002083089587FF12C08F77833041F081300A
:1003C00041F0823041F0882341F08FEF07C083E095
:1003D00005C082E003C084E001C085E021E030E098
:1003E000A90102C0440F551F8A95E2F7CA012FB731
:1003F000F894662351F0623081F497B3382F30952A
:10040000932397BB98B3892B06C097B38095982305
:1004100097BB98B3892388BB03C097B3892B87BB4D
:100420002FBF08958AB583608ABD89B7826089BF6E
:1004300083B7826083BF12BE789486E886B981E074
:1004400090E0C8DA80937B00833010F010927B003C
:1004500080917B0080937A0082E090E0BBDA809309
:100460007D00853010F010927D0080917D0080939A
:100470007C0083E090E0AEDA80937900833010F066
:10048000109279008091790080936D008FB7F89475
:10049000BB98C3988FBF8FB7F894B898C09A8FBF96
:1004A00080918A0087FD31C061E084DF90918A00ED
:1004B00097FF0EC09F77933009F42CCA913009F44E
:1004C0002BCA923089F0992309F428CA9FEF06C0FD
:1004D000992331F0913031F0943039F080E006C04A
:1004E00081E004C082E002C094E084E0C1E0D0E09A
:1004F00001C0CC0F9A95EAF781111EDE9FB7F894E0
:1005000088B3C095C823C8BB9FBFC1E0C093850016
:10051000EADDB09903C0C093800002C01092800051
:10052000409188005091890060E070E080918C00DB
:1005300090918D009DDB9EE0692E712CCC24C3949C
:10054000D12C35E0832E912C49EEA42E43E0B42E1D
:1005500080918000813009F08BC0C39A00DEC0E03A
:10056000D0E02FEF4FEF6FEFCE01D7DE2196C330F3
:10057000D105B9F7C0917900C11106C020E040E073
:100580006FEF80E090E021C0C13061F420E040E0F6
:100590006FEF80E090E0C1DE20E040E06FEF81E0AF
:1005A00090E013C0C23091F420E040E06FEF80E0B3
:1005B00090E0B3DE20E040E06FEF81E090E0ADDE60
:1005C00020E040E06FEF82E090E0A7DE80916C00D9
:1005D000813089F4C23020F4CF5FC093790004C029
:1005E000C23049F41092790085E090E040DD10922D
:1005F0006400109263008091630090916400883ED3
:1006000023E092072CF4019690936400809363009A
:100610008091630090916400883E934039F5609129
:10062000790080916D006817E9F083E090E0DAD9F5
:1006300020E04FEF60E080E090E06FDE20E04FEFE1
:1006400060E081E090E069DE20E04FEF60E082E072
:1006500090E063DEA4DD88EE93E009DD809179000F
:1006600080936D00B0926400A092630098DD70CF1B
:1006700076DD80916C00813069F480917D0084305A
:1006800020F48F5F80937D0013C0843089F4109232
:100690007D000EC0823061F480917B00823020F4B6
:1006A0008F5F80937B0004C0823011F410927B0036
:1006B00080917E0090917F00019690937F008093BF
:1006C0007E008091630090916400883E23E0920751
:1006D0002CF40196909364008093630080916300F2
:1006E000909164008436910521F560917D008091A0
:1006F0007C00681751F082E090E074D98AE090E0C5
:10070000B6DC80917D0080937C0060917B008091BD
:100710007A00681751F081E090E064D98AE090E0B7
:10072000A6DC80917B0080937A00B0926400A09256
:100730006300F0907900FF2041F080917E0090915D
:100740007F00C29709F030C5F6C100E010E0C0910B
:100750007D00C11102C020E017C0C13011F420E0BB
:1007600008C0C23019F42FEF40E004C0C33021F4B8
:100770002FEF4FEF60E00AC0C43019F420E04FEFD4
:1007800004C0C53029F42FEF40E06FEFC801C5DD8C
:1007900080917B00811102C002DDC6C1813009F069
:1007A000ABC06EDC209175003091760040917700EF
:1007B000509178001B012C01221A330A440A550A71
:1007C000A2019101223331054105510508F4ACC164
:1007D0006093750070937600809377009093780013
:1007E000809173009091740001968F30910529F0EB
:1007F000909374008093730004C010927400109260
:100800007300C11111C0C0917300D091740020E039
:1008100040E060E0CE0181DD20E040E062E3CE0117
:1008200001977BDD20E063C0C13089F4C091730083
:10083000D091740020E040E060E0CE016EDD20E069
:1008400042E360E0CE01019768DD20E027C0C230BE
:1008500099F4C0917300D091740020E040E060E012
:10086000CE015BDD22E340E060E0CE01019755DD83
:1008700022E340E060E03DC0C33091F4C0917300DA
:10088000D091740020E040E060E0CE0146DD22E33C
:1008900042E360E0CE01019740DD22E342E3EACF8C
:1008A000C43091F4C0917300D091740020E040E016
:1008B00060E0CE0132DD20E042E362E3CE01019749
:1008C0002CDD20E042E314C0C53009F065CFC091B3
:1008D0007300D091740020E040E060E0CE011DDDA7
:1008E00022E340E062E3CE01019717DD22E340E01E
:1008F00062E3CE010196F5C0823009F04DCF212C84
:10090000312C20E040E060E0C10107DD2FEF221A2A
:10091000320A80E128163104A1F7B2DB209175007C
:100920003091760040917700509178001B012C01A6
:10093000221A330A440A550AA201910122333105D1
:100940004105510508F4F0C060937500709376007E
:10095000809377009093780080916100909162007D
:100960002091730030917400280F391F37FF05C0A4
:10097000D0927400C09273000CC0203131052CF469
:1009800030937400209373000BC0709274006092D7
:100990007300919581959109909362008093610015
:1009A000C1111DC0C0917300D091740020E040E0DF
:1009B00065E0CE010297B1DC20E040E069E1CE01C4
:1009C0000197ABDC20E040E06FEFCE01A6DC20E039
:1009D00040E069E1CE010196A0DC20E0A3C0C13077
:1009E000E9F4C0917300D091740020E045E060E02C
:1009F000CE01029792DC20E049E160E0CE01019750
:100A00008CDC20E04FEF60E0CE0187DC20E049E1A4
:100A100060E0CE01019681DC20E03FC0C230F9F4F5
:100A2000C0917300D091740025E040E060E0CE01F9
:100A3000029773DC29E140E060E0CE0101976DDCB4
:100A40002FEF40E060E0CE0168DC29E140E060E0AB
:100A5000CE01019662DC25E040E060E040C0C3309A
:100A6000F1F4C0917300D091740025E045E060E09E
:100A7000CE01029752DC29E149E160E0CE01019705
:100A80004CDC2FEF4FEF60E0CE0147DC29E149E17C
:100A900060E0CE01019641DC25E045E0DECFC430C8
:100AA00011F5C0917300D091740020E045E065E03D
:100AB000CE01029732DC20E049E169E1CE010197E5
:100AC0002CDC20E04FEF6FEFCE0127DC20E049E186
:100AD00069E1CE01019621DC20E045E065E0CE0130
:100AE00002961BDC59CEC53009F056CEC09173007A
:100AF000D091740025E040E065E0CE0102970DDC66
:100B000029E140E069E1CE01019707DC2FEF40E0E9
:100B10006FEFCE0102DC29E140E069E1CE010196F0
:100B2000FCDB25E040E0DACF0F5F1F4F00311105FD
:100B300009F00DCE02CE33243394F31035C3C0E058
:100B4000D0E0F0907D00F11002C020E01FC04424EE
:100B50004394F41002C020E00BC082E0582EF51040
:100B600003C02FEF40E005C023E0F21204C02FEFD6
:100B70004FEF60E00DC084E0F81203C020E04FEFBB
:100B800006C005E0202EF21005C02FEF40E06FEF09
:100B9000CE01C3DB80917B00811120C071DA00910E
:100BA00075001091760020917700309178001B013C
:100BB0002C01201A310A420A530A920181010233A0
:100BC00011052105310508F4DCC1609375007093AF
:100BD00076008093770090937800B5C0813009F05B
:100BE000B4C04EDA00917500109176002091770024
:100BF000309178001B012C01201A310A420A530A55
:100C000092018101023311052105310508F4B9C1B2
:100C100060937500709376008093770090937800CE
:100C2000809173009091740001968730910529F0AE
:100C3000909374008093730004C01092740010921B
:100C40007300F11011C0009173001091740020E046
:100C500040E060E0C80161DB20E040E062E3C80101
:100C600001975BDB20E06AC033243394F31011C09A
:100C7000009173001091740020E040E060E0C80132
:100C80004CDB20E042E360E0C801019746DB20E056
:100C90002BC012E0412EF41013C00091730010918C
:100CA000740020E040E060E0C80137DB22E340E070
:100CB00060E0C801019731DB22E340E060E040C022
:100CC000B3E05B2EF51012C0009173001091740018
:100CD00020E040E060E0C80120DB22E342E360E086
:100CE000C80101971ADB22E342E3E8CF24E0F212C5
:100CF00012C0009173001091740020E040E060E0A9
:100D0000C8010BDB20E042E362E3C801019705DB89
:100D100020E042E314C085E0F81215C00091730092
:100D20001091740020E040E060E0C801F6DA22E3B0
:100D300040E062E3C8010197F0DA22E340E062E3B9
:100D4000C8010196EADA2BDA1CC1823009F019C118
:100D500000E010E020E040E060E0C801DEDA0F5F74
:100D60001F4F08301105B1F78BD900917500109114
:100D7000760020917700309178001B012C01201A19
:100D8000310A420A530A92018101003511052105F9
:100D9000310508F4F6C06093750070937600809377
:100DA000770090937800809161009091620020918B
:100DB000730030917400280F391F37FF05C0D0929F
:100DC0007400C09273000CC0263031052CF43093AF
:100DD0007400209373000BC0909274008092730093
:100DE0009195819591099093620080936100F11033
:100DF0001DC0009173001091740020E040E065E098
:100E0000C80102978ADA20E040E064E1C801019756
:100E100084DA20E040E06FEFC8017FDA20E040E0B4
:100E200064E1C801019679DA20E0A6C03324339446
:100E3000F3101DC0009173001091740020E045E094
:100E400060E0C801029769DA20E044E160E0C8018F
:100E5000019763DA20E04FEF60E0C8015EDA20E03E
:100E600044E160E0C801019658DA20E042C0A2E007
:100E70004A2EF4101EC0009173001091740025E0FA
:100E800040E060E0C801029748DA24E140E060E019
:100E9000C801019742DA2FEF40E060E0C8013DDA77
:100EA00024E140E060E0C801019637DA25E040E047
:100EB00021C0F3E05F2EF5101FC000917300109168
:100EC000740025E045E060E0C801029726DA24E1DD
:100ED00044E160E0C801019720DA2FEF4FEF60E0B6
:100EE000C8011BDA24E144E160E0C801019615DA8B
:100EF00025E045E060E042C024E0F2121EC000910F
:100F000073001091740020E045E065E0C80102978D
:100F100004DA20E044E164E1C8010197FED920E051
:100F20004FEF6FEFC801F9D920E044E164E1C80157
:100F30000196F3D920E045E020C085E0F81203CF08
:100F4000009173001091740025E040E065E0C80155
:100F50000297E3D924E140E064E1C8010197DDD9BB
:100F60002FEF40E06FEFC801D8D924E140E064E101
:100F7000C8010196D2D925E040E065E0C80102969B
:100F8000E1CE2196C830D10509F0DBCD009171008A
:100F900010917200013D27E012070CF052C020E0D2
:100FA00040E060E088E090E0B8D920E040E060E018
:100FB00089E090E0B2D9D091700020E040E06D2F40
:100FC0008AE090E0AAD920E040E06D2F8BE090E02D
:100FD000A4D920E040E060E08CE090E09ED9C09190
:100FE0006F0020E04C2F60E08DE090E096D920E08B
:100FF0004C2F60E08EE090E090D920E040E060E08F
:101000008FE090E08AD90F5F1F4F1093720000931A
:1010100071000D32114084F480916E008F5F8093D7
:101020006E008A3071F4DF5FD0937000CF5FC093A1
:101030006F0010926E0005C08FEF80937000809358
:101040006F00C0917100D0917200CE018D5291401D
:10105000439770F52FEF4FEF6FEF88E090E05DD989
:101060002FEF4FEF6FEF89E090E057D920E040E09D
:101070006FEF8AE090E051D920E040E06FEF8BE025
:1010800090E04BD92FEF4FEF6FEF8CE090E045D918
:1010900020E04FEF60E08DE090E03FD920E04FEF9F
:1010A00060E08EE090E039D92FEF4FEF6FEF31C065
:1010B000CE3521E0D20789F520E040E060E088E00D
:1010C00090E02BD920E040E060E089E090E025D975
:1010D00020E040E060E08AE090E01FD920E040E0BE
:1010E00060E08BE090E019D920E040E060E08CE027
:1010F00090E013D920E040E060E08DE090E00DD971
:1011000020E040E060E08EE090E007D920E040E0A1
:1011100060E08FE090E001D942D8CE01895592403D
:10112000439790F52FEF4FEF6FEF88E090E0F5D801
:101130002FEF4FEF6FEF89E090E0EFD820E040E035
:101140006FEF8AE090E0E9D820E040E06FEF8BE0BD
:1011500090E0E3D82FEF4FEF6FEF8CE090E0DDD819
:1011600020E04FEF60E08DE090E0D7D820E04FEF37
:1011700060E08EE090E0D1D82FEF4FEF6FEF8FE07F
:1011800090E0CBD80CD80BC0C03DD74041F41092B2
:10119000700010926F001092720010927100109205
:1011A0007F0010927E00D4C9E2E02E2EF210D0C94A
:1011B00000E010E0C0917D00CC2359F0C13011F463
:1011C00020E011C0C23019F420E044E60DC0C33065
:1011D00011F420E003C0C43019F428EC40E004C04E
:1011E000C53029F42FEF4FEF6FEFC80196D80F5F8E
:1011F0001F4F08301105F1F608E010E0C11102C0E0
:1012000020E012C0C13011F42FEF0EC0C23021F423
:101210002FEF40E064E610C0C33019F42FEF40E038
:1012200004C0C43021F42AE04FEF60E005C0C530AF
:1012300029F42FEF4FEF6FEFC8016FD80F5F1F4FEB
:1012400000311105D9F680917B00882309F40ECA7C
:10125000813009F0CFC100E010E020E040E060E024
:10126000C8015BD80F5F1F4F00311105B1F708D7D8
:1012700000917500109176002091770030917800F0
:101280001B012C01201A310A420A530A92018101E2
:10129000003511052105310508F45AC96093750020
:1012A000709376008093770090937800809173001C
:1012B0009091740001968630910529F09093740006
:1012C0008093730004C01092740010927300809198
:1012D00060008150893019F08093600004C07FE085
:1012E000372E30926000C1113DC0C0917300D09183
:1012F000740020E040E06AE0CE0102970ED820E0C2
:1013000040E062E3CE01019708D820E040E06FEFB3
:10131000CE0103D820E040E062E3CE010196FDD784
:1013200020E040E06AE0CE010296F7D7C09160006D
:10133000D0E020E04AE060E0CE010297EED720E066
:1013400042E360E0CE010197E8D720E04FEF60E094
:10135000CE01E3D720E042E360E0CE010196DDD785
:1013600020E000C1C130E9F5C0917300D091740054
:1013700020E04AE06AE0CE010297CFD720E042E3C6
:1013800062E3CE010197C9D720E04FEF6FEFCE01A6
:10139000C4D720E042E362E3CE010196BED720E04D
:1013A0004AE06AE0CE010296B8D7C0916000D0E072
:1013B0002AE04AE060E0CE010297AFD722E342E3A1
:1013C00060E0CE010197A9D72FEF4FEF60E0CE018B
:1013D000A4D722E342E360E0CE0101969ED72AE043
:1013E000C1C0C23009F03FC0C0917300D0917400F9
:1013F00020E045E06AE0CE0102978FD720E044E18B
:1014000062E3CE01019789D720E044E66FEFCE0179
:1014100084D720E044E162E3CE0101967ED720E04C
:1014200045E06AE0CE01029678D7C0916000D0E036
:101430002AE040E065E0CE0102976FD722E340E06A
:1014400064E1CE01019769D72FEF40E064E6CE0159
:1014500064D722E340E064E1CE0101965ED72AE042
:1014600040E065E0C3C0C330F1F5C0917300D09196
:10147000740020E040E06AE0CE0102974ED720E001
:1014800040E062E3CE01019748D720E040E06FEFF3
:10149000CE0143D720E040E062E3CE0101963DD784
:1014A00020E040E06AE0CE01029637D7C0916000AC
:1014B000D0E02AE040E060E0CE0102972ED722E3A0
:1014C00040E060E0CE01019728D72FEF40E060E0D8
:1014D000CE0123D722E340E060E0CE0101961DD784
:1014E0002AE040E040C0C43009F03FC0C091730022
:1014F000D091740027E040E06AE0CE0102970DD75A
:1015000028E240E062E3CE01019707D728EC40E0F3
:101510006FEFCE0102D728E240E062E3CE010196F0
:10152000FCD627E040E06AE0CE010296F6D6C091F4
:101530006000D0E023E04AE060E0CE010297EDD603
:101540002AE042E360E0CE010197E7D624E14FEFC5
:1015500060E0CE01E2D62AE042E360E0CE010196EF
:10156000DCD623E04AE060E041C0C53009F07EC827
:10157000C0917300D09174002AE04AE06AE0CE0185
:101580000297CBD622E342E362E3CE010197C5D6B0
:101590002FEF4FEF6FEFCE01C0D622E342E362E3BD
:1015A000CE010196BAD62AE04AE06AE0CE01029660
:1015B000B4D6C0916000D0E02AE04AE06AE0CE01F3
:1015C0000297ABD622E342E362E3CE010197A5D6B0
:1015D0002FEF4FEF6FEFCE01A0D622E342E362E39D
:1015E000CE0101969AD62AE04AE06AE0CE01029640
:1015F00094D63CC8823009F0ABC7809171009091BD
:1016000072008C3E24E092072CF4019690937200B5
:101610008093710000917100109172000C331105DC
:10162000A4F568E0E62EF12C20E040E060E0C70180
:1016300074D68FEFE81AF80A20E1E216F104A1F758
:10164000E12CF12CCC2359F0C13011F420E011C071
:10165000C23019F420E044E60DC0C33011F420E09C
:1016600003C0C43019F428EC40E004C0C53029F4AC
:101670002FEF4FEF6FEFC70150D68FEFE81AF80A40
:1016800028E0E216F104F1F68AD5C801CD978F392A
:101690009105F0F458E0E52EF12C20E040E060E008
:1016A000C7013BD68FEFE81AF80A20E1E216F104F1
:1016B000A1F7E12CF12C20E040E060E0C7012DD63D
:1016C0008FEFE81AF80A28E0E216F104A1F767D5CF
:1016D000C801815F9109CB97B0F548E0E42EF12C69
:1016E00020E040E060E0C70118D68FEFE81AF80A62
:1016F00020E1E216F104A1F7E12CF12CCC2359F002
:10170000C13011F420E013C0C23019F420E044E6E7
:101710000FC0C33019F420E040E00AC0C43021F407
:101720002AE04FEF60E005C0C53029F42FEF4FEFFE
:101730006FEFC701F2D58FEFE81AF80A28E0E2163A
:10174000F104E1F62CD5C8018D529140833B9105FF
:10175000F0F438E0E32EF12C20E040E060E0C70137
:10176000DCD58FEFE81AF80A20E1E216F104A1F7C0
:10177000E12CF12C20E040E060E0C701CED58FEFF6
:10178000E81AF80A28E0E216F104A1F708D5C80122
:1017900085549240CB97D0F528E0E22EF12CC11170
:1017A00002C020E003C0C13021F42FEF4FEF60E012
:1017B00015C0C23021F42FEF40E064E60FC0C33003
:1017C00019F42FEF40E0F3CFC43019F428EC40E0D7
:1017D00004C0C53029F42FEF4FEF6FEFC7019DD53F
:1017E0008FEFE81AF80A20E1E216F104C1F6E12CC5
:1017F000F12C20E040E060E0C7018FD58FEFE81AC0
:10180000F80A28E0E216F104A1F7C9D4C80181580A
:101810009240833B9105F0F498E0E92EF12C20E012
:1018200040E060E0C70179D58FEFE81AF80A20E1BF
:10183000E216F104A1F7E12CF12C20E040E060E099
:10184000C7016BD58FEFE81AF80A28E0E216F10419
:10185000A1F7A5D4C80185539340CB97B0F588E094
:10186000E82EF12CC11102C020E012C0C13011F4E9
:101870002FEF0EC0C23021F42FEF40E064E610C01D
:10188000C33019F42FEF40E004C0C43021F42AE043
:101890004FEF60E005C0C53029F42FEF4FEF6FEF39
:1018A000C7013BD58FEFE81AF80A20E1E216F104F0
:1018B000C9F6C0E0D0E020E040E060E0CE012DD5E8
:1018C0002196C830D105B9F76AD4015713400B37B8
:1018D000114008F03DC6C8E0D0E020E040E060E004
:1018E000CE011BD52196C031D105B9F7C0E0D0E0BB
:1018F00020E040E060E0CE0110D52196C830D1054F
:10190000B9F74DD48AEF90E0B2D3109272001092E2
:1019100071001EC693E0E2C592E0E0C595E0DEC529
:1019200080918C0090918D00009709F018D18091E2
:101930008A0087FD02C060E03DC5089510928500D1
:1019400010928B00109292001092930010929400CB
:101950001092950081E08093910080938E00109208
:101960008F0082E08093900080E390E09093890064
:10197000809388005CD090938D0080938C000097BA
:1019800061F020E3FC0111922A95E9F780E190E0F3
:10199000909387008093860008C01092890010926F
:1019A0008800109287001092860084E080938A005D
:1019B00080918500882321F0BC9A84E0BDD3C4982F
:1019C00088E390E0909397008093960080E1809365
:1019D00098000895E199FECF9FBB8EBBE09A9927AE
:1019E0008DB30895262FE199FECF1CBA9FBB8EBB05
:1019F0002DBB0FB6F894E29AE19A0FBE01960895B6
:101A00000024552704C0080E591F880F991F0097FE
:101A100029F076956795B8F37105B9F7802D952F64
:101A20000895EE0FFF1F0590F491E02D09940F9398
:101A30001F93CF93DF938230910510F482E090E002
:101A4000E0919B00F0919C0020E030E0A0E0B0E04D
:101A5000309719F14081518102811381481759074C
:101A6000C8F08417950769F4109731F012960C931B
:101A7000129713961C9327C000939B0010939C0011
:101A800022C02115310519F04217530718F49A01A5
:101A9000BD01EF01DF01F801DBCF21153105F9F0C0
:101AA000281B390B2430310580F48A819B81611514
:101AB000710521F0FB019383828304C090939C0005
:101AC00080939B00FE01329644C0FE01E20FF31F9B
:101AD0008193919322503109398328833AC0209110
:101AE000990030919A00232B41F4209167003091A6
:101AF000680030939A0020939900209165003091FE
:101B000066002115310541F42DB73EB740916900BB
:101B100050916A00241B350BE0919900F0919A00D6
:101B2000E217F307A0F42E1B3F0B2817390778F0B4
:101B3000AC014E5F5F4F2417350748F04E0F5F1F13
:101B400050939A00409399008193919302C0E0E0F2
:101B5000F0E0CF01DF91CF911F910F910895CF93C6
:101B6000DF93009709F481C0FC013297138212823F
:101B7000A0919B00B0919C00109781F4208131814D
:101B8000820F931F2091990030919A0028173907EE
:101B900051F5F0939A00E093990067C0ED0120E0C1
:101BA00030E0CE17DF0740F44A815B819E0141158A
:101BB0005105F1F0EA01F5CFD383C2834081518111
:101BC000840F951FC817D90759F488819981840F0C
:101BD000951F0296918380838A819B819383828360
:101BE0002115310529F4F0939C00E0939B003DC042
:101BF000E901FB83EA8349915991C40FD51FEC1782
:101C0000FD0761F480819181840F951F0296E9019F
:101C100099838883828193819B838A83E0E0F0E0CB
:101C200012968D919C911397009719F0FD01DC019C
:101C3000F7CF8D919C9111979D012E5F3F4F820FA1
:101C4000931F2091990030919A002817390769F461
:101C5000309729F410929C0010929B0002C01382CE
:101C60001282B0939A00A0939900DF91CF910895CA
:101C7000DC0101C06D9341505040E0F7089510E041
:101C8000C0E1D0E003C0FE01CCDE2196C131D10716
:061C9000D1F7F894FFCF2C
:0C1C96000F0100E90300009D0080000029
:00000001FF
